:100000004D5836510000000000000000009801002B
:100010000EE4200070E490E170E490E170E490E17F
:1000200070E490E10EE4780170E490E170E490E116
:1000300070E490E170E490E10EE4920170E490E1EC
:1000400070E490E10EE4380070E490E170E490E137
:1000500068E127D0010002A2C2E00800C2E0580017
:1000600000A2C2E05A00F03CF13CFEA2EE3CEF3CA4
:10007000EC3CC0E05C0002A8C2E05D0000CEEEF205
:100080001EE468019EE002A23EAE079FC0E05C0055
:10009000C1E05900ED3E03A2ED5A52E0C1E05D001F
:1000A00055E0C3E05D0002A200CE00A2C2E059000C
:1000B000C2E05800C2E008000EF0C0E05C00C1E001
:1000C0005900ED3E03A2ED5A52E08AF0C1E05D0016
:1000D00055E0C3E05D0002A200CEC0E03D04EEA109
:1000E000D8F704E06000C2E0090000A2C2E0090005
:1000F000C0E00D00E8F71EE4BB00C0E05A00EE18B7
:10010000C1E0590015A136B6EE2A0AB618E42F014F
:10011000C0E05B00C1E05E0011AE56E0EF18C1E048
:10012000590017A136B618E4E500C0E05A00EE18F1
:10013000EE2A0AB6C1E0590017A136B618E4230129
:1001400071D02A2481E1C0E05A00EE3C1EE4340163
:100150001EE468019EE002A2079FC0E0590002AEC3
:1001600000E078016AE100C07CE6C0E05A00EE3CA5
:100170001EE43401C0E05B00C1E05E0011AE56E059
:10018000EF3C0EE4550000A2C2E05900C2E0580066
:10019000C2E00800C0E05900EAF71EA198F102A2EF
:1001A000C2E0580004E020F020AE05E0091056E05F
:1001B000C2E0700004E0000020AE0AE0F150C2E0AE
:1001C000710000A2C2E05900C2E058004EF602A23F
:1001D000C2E00800C2E058002EE400A2C1E05B00CB
:1001E000CBF228A203A19BF238A203A16BF244A296
:1001F00003A15BF160A203A10BF268A203A1DBF1F2
:1002000074A203A1ABF103A1FBF004E0560003A12B
:100210004BF104E05C0007A10BF100A2C1E05E001D
:10022000CBF010A0AEF004E03E00C1E05E005BF059
:1002300010A003A12BF010A016AEC1E0400041E0D9
:1002400028CAF8F721CE11D1000012D1002813D10D
:100250000B00E1E12EE4C0E0590002A12AE4C0E075
:100260005A00EE3C1EE4340104E098017CE61EE4F2
:10027000340104E09A017CE6EE2808E0FF03A4CCF8
:1002800082E12F0018E0EE2E15AFA5CC82E12F0001
:1002900019E015AE42E014AEF034F13C2EE400A2B9
:1002A00001C488E1EB00113D61E1F20088E10D0B32
:1002B000113D2EE4EC3CC0E0410005E0480311AEE6
:1002C00042E0F022F14E42E029CAF9F720CE11D1E6
:1002D000000012D1000CEC88130128CAF8F72EE4B4
:1002E000C0E0590006A148F004E076002EE4C0E02A
:1002F00059000CA138F004E0710004E070002EE415
:100300000EE41D080EE49C010EE4A0010EE4A4011D
:100310000EE4B0010EE4AD000EE4AD000EE4B80151
:100320000EE4BC010EE4AD000EE4AD000EE4AD0041
:100330000EE4AD000EE4AD000EE4AD000EE4AD0041
:100340000EE495050EE4AB051EE4F9010EE4AD00E4
:100350001EE48F020EE4AD001EE4DA0A4D2884A1EB
:100360001EE4C0011EE490021EE4280B0EE4AD0062
:100370004D2884A11EE4C0011EE484040EE4AD00F7
:100380001EE4BB040EE4AD001EE47A050EE4AD00ED
:1003900028E4C0E0400015A217AE42E029CAF9F7F0
:1003A00020CE11D1000012D1002813D10B00E1E1C1
:1003B0002EE4F23C05E0002604A13AF005E000231B
:1003C00003AEC0E0400042E001A217AE42E09BCA8B
:1003D000F9F729CAF9F720CE11D1002112D1000373
:1003E00013D10B00E1E190E12EE467E1D20566E173
:1003F000640022D0030084E1F701169E1735173DF3
:100400002EE430D100003AD000004CD0000008D0DB
:1004100000001EE447011EE4BE0A1EE4D9041EE4E7
:10042000870AFEA2103C203C483C06A2BE3C00A22B
:1004300044CCD63C4E3C4B3CC0E0620002AF1E3088
:1004400002AF06A8753C1EE487071EE419151EE4DA
:10045000861900A2CECF1EE472066D2808E48A0237
:10046000A4280EA198F71EE42C151EE4A50728E188
:100470001EE4010F1AF7FEA2103C5020514C08AEAA
:10048000C2E071005B205A4CC2E0720061E15C0086
:100490001121114DC2E07A001121114DC2E0790005
:1004A0001F2A0A200B4C2BF002AEC2E076000C2073
:1004B0000D4C2BF002AEC2E07700502802E0800025
:1004C00020F3512802E08000E0F21B2802E0002225
:1004D000A0F21E28DAF0132804A1AAF0DF2804A055
:1004E000C2E07300DE28DC3CC2E074009EF01628F7
:1004F00004A0C2E0730000A2C2E07400DC3C00A2D1
:100500006D3C002804AE1A4C02AE182A17E056E0E3
:1005100010AE1C4C10AE4D4CC2E07B0002A2C2E0FB
:1005200070002EE400A26D3CC2E070002EE42EE4C8
:1005300030D1000052D1000000A244CC4ACC4CCCB7
:100540004C3C00A2F23C763C0E3C4BD100021EE437
:10055000AF11C1E0650041A8ABF067E1E00503C75A
:10056000173D1EE4870504E088006F3C1EE4191E59
:100570001EE4441E1EE4DE0A00A2CECFFEA2C2E0AC
:100580007800C2E07900FCA2C2E0770002A2C2E0DB
:1005900076006E287AF01EE447081EE4570600A293
:1005A0006E3C1EE4F7115AF002A26C3C0EE4E90323
:1005B000752802A8AAF000A2693C6B3C1EE45F0704
:1005C00004A2C2E075008EF01EE4EE0428F02EE4D2
:1005D00078282AF02EE41EE4E214E0D10300FFD1D3
:1005E000B003FDD1D00399D12402FCD120073AD029
:1005F00000004CD0000008D000008E285AF18F284F
:1006000012F2DB281AE49A141EE4D719C1288F3C91
:10061000393C482812E4F7195020514C08AEC2E08A
:100620006F000EE4E9031EE4C01948F0FFA2C3E026
:1006300077003AF06C286AF0482812E4F7190EE4C3
:10064000E903FCA2C2E0770000A2AA3CAB3C8E28E2
:1006500038F0C128BF3C02A2493C8E280AF102A210
:100660001EE4D1018A28A33C8B28A53C8F28C13CDD
:100670001EE4EF051EE4380E0EE499031EE4720634
:10068000EC3CA4280CA116E08AF0F22804A1BAF0F0
:1006900004A21EE4D1017EF0F22802A14AF002A2D7
:1006A0001EE4D101EC28A428AAF602A10AE49903C9
:1006B00008A154F60AE4990302A17AF102A1FAF022
:1006C00002A10AF102A14AF102A16AF102A14AF1D2
:1006D00002A1AAF20EA132F50EE497031EE42C1536
:1006E000FEF21EE45715CEF21EE400219EF244BA3B
:1006F0001EE486095EF2752802A808E451046B28FE
:10070000CAF0752802A816E06C3C1EE43B06482897
:1007100012E4F7190EE4E9037F2838F07D283AF057
:1007200002A2A93CDEF00EBA02E0FF0058F04EBA79
:100730001EE4EC0698F71EE486090EE436030EE488
:10074000360365E1E807A528153DA328153D3028A7
:10075000153DD328153D8E2858F0FEA2C13C1EE45D
:10076000A90B7E2A03A10BE4E9030AE43603A328BC
:10077000843CA528853C3B2ABF28C1181AF1BE2815
:1007800006A1FAF01EE404061EE41906482812E445
:10079000F7195020514C08AEC2E06F003EF2BE4E39
:1007A000BE3E00A2493C8E3C1EE400212F2802A040
:1007B0002F3CA328344C48F0C1281EE48C19A328F0
:1007C00018E4601634281AE44213342802AA32448A
:1007D0001AE47513D328D73C32284AF034280AE4A7
:1007E0001F036C284AF01EE49514DC3C1EE49E13A3
:1007F00032F06C2AB6B749E0D41A45F0FAA26B2A57
:10080000F2B7C2E07100C0E07100483C00A2482A83
:10081000F4F00A3E09AF7220734C6BF07020714CFB
:100820000A2A1FA80A3E0A5C0A5C06A820AE182AFB
:1008300003AE184E11AE334E05AE194E03AE324E16
:1008400025AE56E0304CC2E07300482AB5F109AF3E
:10085000FBF07020714C482A1FA80A3E07A20A5AD2
:100860000A5A13E003A152E07034713CBEF07220CA
:10087000734C07A2485A485A13E003A152E072345D
:10088000733C4C28C2E072004B2C02A04B3CC2E0EF
:10089000700000A27E3C4AC84DC820AE56E0C2E0BF
:1008A00053001EE4AF111EE45E041EE4021502A212
:1008B0002EE41EE4AF111EE45E041EE40215FEA247
:1008C000C2E0720000A2C2E076002EE4C0E0650043
:1008D00008E000012AE467E1180566E1E00522D09E
:1008E000070084E17204172908AE174D08AE174DB2
:1008F00008AE174D163D90E128CAF8F767E1C80524
:100900001721174D20CE11D1E00512D1080013D1C7
:10091000020028CAF8F72EE41EE4ED01C1E044000D
:1009200009A833AEC0E06A0067E1DA051735173D64
:10093000C0E06B0056E01735073D28CAF8F7C0E065
:10094000420020CE11D1000612D1C00013D1030005
:1009500028CAF8F700A21EE4820E04E040001EE45C
:10096000820EC0E06000D43CC0E06100673C67E1FB
:10097000F907C0E062001735173DC0E06300173D7E
:100980001EE4191E2EE428CAF8F7C0E0420020CE6B
:1009900011D1000012D1800013D1130028CAF8F73A
:1009A000C0E06100A73C02A2A63C1EE4A50728E126
:1009B000C0E0600048F01EE42C153EF01EE4571520
:1009C0002EE4C0E0400001A217AE42E005E0004F77
:1009D00003AE42E029CAF9F720CE11D1500412D15A
:1009E000C80013D1030028CAF8F72EE4C0E0650060
:1009F0007A3002AF783002AF7F3002AF06A87D3C7C
:100A0000C0E066007C3C7F285AF000A27A3C783C2B
:100A10000EF17C2828F07D3C7D28BAF07C2802A1CC
:100A20005AF000A27A3C783C4EF0783C02A27A3C24
:100A30007A280AE47205EE287B3CC0E05A00EE3CBE
:100A40001EE42F011EE47206792808E46305A42839
:100A5000AAF702A19AF208A164F76AF202A1DAF1F8
:100A600002A1DAF002A12AF102A17AF104A166F151
:100A700002A19AF60EA172F60EE447057A2806A1A5
:100A80000AE463051EE42C15BEF07A2806A10AE4E8
:100A900063051EE457154EF03EF00EE463057A2818
:100AA00006A1A2F10EF502A2493C1EE4A90B0AE43C
:100AB0001A053028C2E073004A2808E41A057A288B
:100AC00006A1A2F032284AF034280AE41A0506A248
:100AD0007A3C0EE41A05792802AAC2E075001EE4E9
:100AE00023017B28EE3C00A27A3CC2E07200C0E009
:100AF00075002EE400A27A3C793C04A2C2E07500A5
:100B000002A22EE400A29B3C1EE4A5071EE49F085F
:100B100000A2633C1EE4B30702A26E3C2EE428CA86
:100B2000F8F7C0E06B0020CE11D1E00512D104002F
:100B300013D1020028CAF8F72EE406A21EE45201DF
:100B40001EE4BE0A36A21EE4BF0526A21EE4D70597
:100B50001EE4190A1EE4EC0E67E100081EE4F30728
:100B60001EE409082EE434A21EE4BF0524A21EE4FC
:100B7000D70567E100081EE4C4071EE4DA071EE497
:100B8000E90E1EE4500A04A21EE452012EE4EC3CDD
:100B9000C0E0410005E0600311AE42E0F022F14EFA
:100BA00042E049CA03A8E9F740CE21D1000022D192
:100BB0004000EC88230148CA02A8E8F72EE4EC3C88
:100BC000C0E0410005E0760311AE42E0F022F14EB4
:100BD00042E029CA03A8E9F720CE11D1000012D1C2
:100BE0000001EC88130128CA02A8E8F72EE465E1A9
:100BF000EC071529303C1529323C15293B3C1529B9
:100C0000333C1529343C15293A3C15291529152959
:100C10003C3C1529D33C2EE465E1EC073028153D1A
:100C20003228153D3B28153D3328153D3428153D08
:100C30003A28153D153D153D3C28153DD328153D59
:100C40002EE402A28E3CA3288A3CA5288B3CC12816
:100C50008F3C65E1E8071529A53C1529A33C15291A
:100C6000303C1529D33C02A2323C343CA53CBE2882
:100C700002A8333C00A23A3C523C1EE43B06BE288C
:100C80003B4CBE3C2EE4BE2806AA3B3CBF2AC13EDC
:100C90000A3E09AF7220734C6BF07020714C0A2A27
:100CA0001FA80A3E3B2A0A5A0A5A56E0C12A09AF2F
:100CB0004BF07034713C2EE47234733C2EE448D116
:100CC000400044D1000045D1000068D100006BD144
:100CD00000004BD1000204E0190018AEC0CE4CD188
:100CE0000C002EE444CC84E17006A0CA9BCAF9F73C
:100CF00090E12EE458D1000104E0FF0014E0B8CEEA
:100D00005DD100005ED100005FD1000004E0190059
:100D100018AE0AE02004C0CE57D100004AD100002E
:100D20004CD103009CCA18E447086D28A8F2792822
:100D300088F29ACA88F7AECA02A8FAF69CCA18E4E2
:100D4000470806A21EE46A06003C9CCA18E447084D
:100D500000280EAF28F600280AAFA33C00283EA8C2
:100D6000A43C492A4BF00AA116E0A53C00A2A83CED
:100D7000A73CA03C1EE4BB061EE4A50728E12EE428
:100D80004CD102002EE4A028A14448F049D1000033
:100D90003EF049D180004AD1000058D1000004E063
:100DA000FF0114E0B8CE5DD100005ED100005FD13C
:100DB000000061D1030004E0190018AE0AE0380613
:100DC000C0CE4CD103009CCA18E447089ACAC8F7A1
:100DD0009CCAA8F79ECAA63C92CC94CAA800A70CAD
:100DE000A834A73C90CC2EE4A62816E071C811A028
:100DF00028E407AF09E0FF07A72808E0FF0746E05F
:100E00005AF1DEF061E1E105012971C811A007AFD7
:100E100009E0FF0708E0FF0746E08AF049E011E03B
:100E200015AF21E420E400A22EE468C80EA828F043
:100E300010A2953C957803A2955A03AF46E02EE4A4
:100E4000A328A52A8A3C8B3EA728A62A8C3C8D3E47
:100E500002A2863CC0E04100F022F14E42E005E0F3
:100E6000640311AE42E029CAF9F720CE11D1000087
:100E700012D1800013D1120028CAF8F72CCAFAF751
:100E80002EE48A288B2AA33CA53E8C288D2AA73CD9
:100E9000A63E90CC93CC00A2863CA83CA03CC0E0EF
:100EA0004100F022F14E42E005E0640311AE42E061
:100EB00029CAF9F720CE11D1000012D1800013D138
:100EC000130028CAF8F71EE4A50728E12EE400A2C3
:100ED0009B3C752802AF02A85AF0C0E06800983425
:100EE000993C9820994CC1E0670042E0C1E069005C
:100EF0000FA82BF042E005E0490093E0019F04E0D9
:100F0000FFFF9A3C1EE4A5071EE49F0800A2633C75
:100F10001EE4B3071EE447081EE457062EE400A2B1
:100F20009B3CC0E060009834993CC0E0610004AE96
:100F30009A3C1EE4A5071EE49F0800A2693C6A3C97
:100F40006B3C6C3C633C1EE4B30771D02A2081E10A
:100F50001EE447081EE457062EE400A260CC62CCD3
:100F600064CC68CC66CC6ACC6ECC70CC4BD0010023
:100F700036D07F002EE4643C8EE0653C1EE4BF0763
:100F80001EE4EE0765289EE06428633C2EE4632897
:100F900008AE00E038059EE0178B3300178B340055
:100FA000178B3500178B3600178B3700178B3800DF
:100FB00060C81735173D62C81735173D64C8173527
:100FC000173D2EE472C81735173D8CC81735173DED
:100FD00090C8173D96C8173D98C8173D05E01514F1
:100FE00021AE9EC856E01735173D2EE4642808AEA2
:100FF00000E038059EE0178933001789340017890F
:1010000035001789360017893700178938001721EE
:10101000174D60CC1721174D62CC1721174D64CCAA
:101020002EE41721174D72CC1721174D8CCC1729A0
:1010300090CCF4288ECCA62892CC172996CC1729D0
:1010400098CC1721174D9ECC2EE400C0632808E4ED
:101050008115A62888F1A02868F01EE4BB064CD0B4
:10106000000070E496C85AF01EE43D084CD0000021
:1010700004E08000A12A16B66ECC4BD0010002A27B
:10108000A23C70E44CD0000070E400A2A23C1EE43C
:10109000BB06A62896CCA12816E0A13C2EE46B281E
:1010A0002AF11EE4CF0A00E0400450CE04E00B0118
:1010B00052CE00A252CE52CE52CE1EE4D60A4ED10D
:1010C00000002EE482E09C3C04E0480092E027D03F
:1010D000000069281AE4A90827D001006D2818F338
:1010E0007928F8F248CA02A8E8F79820994C9B2E74
:1010F00011AE42E040CE21D1000022D14000C0E03C
:10110000430006A802AE32A046CE90E190E190E105
:1011100090E148CA02A8E8F79B2C00E002009B3C43
:101120009A1C24F09B3C52F069286B3C18E4F708A9
:101130007A2878F09820994C9B2E11AE42E0019FBE
:101140009C2892E04ED1000044D100002EE498206B
:10115000994C9B2E11AE42E005E0480093E0019FC0
:101160002EE4C1E0430009A829E400A29D3C982098
:10117000994C9B2E11AE42E01181899E45E043F0CF
:101180009A2C10AE41E003E00002692806B6693CE3
:1011900023E401E000026A3E692828E4C0E045003B
:1011A00004AF02A8693C48F6752802A87AF0C1E0AD
:1011B000590003A116B6693C2EE4C0E0590002A113
:1011C00068F0C0E045006D306D2828E47A284AF0C8
:1011D00002A2793C2EE49D2808E4AF08C0E05C0040
:1011E00008E000400AE4AF08C0E05D000AE000400B
:1011F000C2E05D0002A200CE9D3C0EE4AF081EE4FA
:10120000CF0A6A280AE4D60A06A87AF108A112E0F1
:1012100006AEFD3C6A2804AF20AE00E0C00150CE0F
:1012200090E152CAFD5CFD586A2A05AF21AE01E08B
:10123000400151CE90E152CE04E0F0016A1862F113
:1012400020A004AF06E4D60AFD3C10AE6A2A07A02F
:1012500005AF21AE41E001E0400051CEFD2801A2E2
:1012600053CE02A1E0F70EE4D60A6A2806A004AF26
:1012700020AE00E0400450CE04E00B0152CE00A2AC
:1012800052CE52CE52CE0EE4D60A0CBA3AF0FCBC84
:101290002EE44CBA0CA2963C962802A0963C40A1A3
:1012A000D2F040BAAAF7965802A19E349F3C9628E5
:1012B0001EE47A099E009F0C2EE46BE12EE40CBA2A
:1012C0003AF07EBE2EE44CBA0CA2963C962802A0C0
:1012D000963C40A162F140BAAAF7965802A19E340A
:1012E0009F3C96281EE47A099E009F0C9F3C9F8C91
:1012F000000002A002AF12E02CE412E06AE12EE44A
:101300006BE12EE420A150F020A0973C97742EE4CE
:10131000973C5EBA9758977656E02EE440BA2AE496
:1013200068C80EA8003C16E028E4007416E02EE41D
:10133000302A03A1262825E42BF02728F4B702A0A1
:10134000463C04A124E44AF05AA2473C2EE40EBCD9
:10135000003C2DE41F282AF00EBC013C2DE401289E
:1013600006AE004C473C61E1280764E12007408855
:1013700022001EE4C1092DE4302804A128E44128FC
:1013800061E1880764E12407418822001EE4C10965
:101390002EE482E040A094E040A096E004E0FF004C
:1013A000033C00A2053C063C073C083C093C84E1A8
:1013B0000D0A40BABAF0C6E08000034410AEC7E0A0
:1013C0008000034656E0113DCEF002A2005810AE58
:1013D000113D0622074E02A2055856E00634073C8E
:1013E0001F282AF240BA4AF1C6E08000034410AE3A
:1013F000C7E08000034656E0123DC6E0800003448B
:1014000010AEC7E08000034656E0133DDEF002A2B6
:10141000015810AE123D133D0822094E02A2055894
:1014200056E00834093C052802A0053C0620074C7C
:1014300014E01435143D0822094E15E01437143F0A
:101440002EE461E120081121114D80CE1121114DB2
:1014500082CE1121114D84CE1121114D86CE1189DC
:101460004401118945011189480111894E011189F1
:10147000570111896001118963011121114DCCCEF1
:101480001121114DCECE118968011121114DD2CEFD
:101490001121114DD4CE11896B0111896C01118973
:1014A0006D0111896E0111892A01118949012EE40A
:1014B00061E1200880CA1135113D82CA1135113D04
:1014C00084CA1135113D86CA1135113D118B440175
:1014D000118B4501118B4801118B4E01118B570166
:1014E000118B6001118B6301CCCA1135113DCECA3D
:1014F0001135113D118B6801D2CA1135113DD4CA85
:101500001135113D118B6B01118B6C01118B6D012C
:10151000118B6E01118B2A01118B49012EE41EE4FF
:10152000BE0A60D1200604E0190018AEC0CE2EE439
:101530001EE4CF0A00E0400050CE00A222D0FF00FF
:1015400084E19B0A52CE90E11EE4D60A2EE41EE40A
:10155000CF0A00E0C00050CE22D07F0084E1AB0A69
:1015600052CA1735173D90E11EE4D60A2EE41EE458
:10157000CF0A00E0400050CE22D07F0084E1BA0ABA
:101580001721174D52CE1EE4D60A2EE404A222AE35
:101590009ECC04E010A820AE0AE022934ACE6FD180
:1015A000030090E190E190E16FD100002EE404E0AF
:1015B000300050CE50CA02A8EAF72EE404E0200022
:1015C00050CE2EE400A2C2E01C042EE41EE4360B32
:1015D0002AE4C0E0610008E01F000AE00001C2E068
:1015E0001C041EE46A0B1EE4A40B12AEC2E01E042F
:1015F0001EE4940B2EE41EE4590B2AE4C0E01F0401
:10160000E8F7C0E0150210AF02A84AF0C0E01602E9
:10161000BEF0C0E0130210AF02A84AF0C0E014020E
:101620003EF0C0E00B020AE00001C2E01C041EE430
:101630006A0B1EE4A40B12AEC1E0100203A815AEA3
:1016400056E0C1E004020BAF7FA807AE56E0C1E050
:1016500004020FA856E0C2E01E041EE4940B2EE420
:10166000C0E01F04E8F7C0E01F04E8F7C0E03D0455
:10167000EEA1D8F700A2C2E01C042EE4C0E04400B2
:1016800008E00010DAF1C0E0600008AF06A88AF1B7
:10169000C0E060001EA816E0C1E0600021A817E0CD
:1016A00056E0EAF0C0E0440012AF06A816E0C1E040
:1016B000440017AF03A856E03AF002A22EE400A2BD
:1016C0002EE4C0E0440008E00010BAF01EE4360B3F
:1016D00088F0C0E0440012AF06A838F002A22EE461
:1016E00000A22EE4C0E01C0408E0FF00A4CC85C7E3
:1016F00018E000E0000502A004AEC2E01A0402A255
:10170000C2E01804C0E01904EAF702A2C2E018041B
:10171000C0E01904EAF7C0E01B0420AF1EA008AF28
:1017200028AEC1E01B0409E0FFFF1FA009AF09AE0E
:1017300056E0C2E01D042EE4C0E01C040AE00002F2
:10174000C2E01C0428A202A1F0F7C0E01C040CE0D7
:101750000002C2E01C042EE4C0E0440004AF02A872
:101760002EE4C4E0FF3F0DE44A0D4A3C4A281AE04B
:10177000884408E44A0D7A2A99F07F2A39F0892AA8
:101780003BF008E44A0D00A2893C12BC0DE44A0D6E
:101790000AA1A8B404A100E44A0DB4B706A0303CE5
:1017A0004928FAF0FEBD0DE44A0D20180AF1200880
:1017B000203C1EE46B157A2A39F00AE44A0D7EF0CB
:1017C000FEBD0DE44A0D201808E4420D49284AF0F8
:1017D0001174313C5EF01174311808E4420D49284F
:1017E000CAF000A2323C333C182838F140BA323CEF
:1017F0000AF140BA333CDEF01828B8F040BA32188B
:1018000008E4420D32285AF040BA331808E4420D79
:101810004928FAF11B28325C3C3C00A2343C3228B7
:101820000AF11EE4570D343C16E0353CAAF002A242
:10183000353CA3281AE0363C3128373C3328383C65
:10184000322816E019443A3C3228330874B63B3C3F
:1018500049280AE4790C7A2808E4770C7E2804A148
:101860000AE4770C752802A81AF2C0E0650008A8FF
:1018700008F17F3CC0E0650006AF06A80AE4770CDB
:1018800002A17AF002A12AF09EF0A3287AF08EF34A
:1018900002A27F3CA5282AF03EF3FAA2C2E0710022
:1018A0003028C2E0730000A22EE47F28FAF0A528B9
:1018B0001AF24A28F8F17C283AF2322A4BF0342AFC
:1018C00009E45B0C02A17C3C5EF17D289AF102A147
:1018D0006AF002A160F0A3284AF02EF1A52808F1D1
:1018E0007C28322A4BF0342A09E46F0C02A14AF01A
:1018F0007C3C00A22EE402A2893C7E3C2EE404A2A1
:101900007E3C49289AF0A5280AF11EE43D090DE421
:101910004A0D3D3CAEF0A5288AF01EE43D090DE4D9
:101920004A0D3D1C08E4420D49284AF01EE4FF120E
:10193000DEF2132802A134F03AF18EF21474E31CA3
:1019400008E4420D322816E022440AF21EE4570948
:101950000DE44A0DE410E51C08E4420D7EF1152863
:1019600058F11EE457090DE44A0DE310E41C08E4A5
:10197000420D322816E022449AF01EE457090DE485
:101980004A0DE510E61C08E4420D302804A138F0A9
:1019900040BA3E3C2428403C2528413C3028EAF00F
:1019A00040BACAF03EBC403C0DE44A0D302804A1C8
:1019B00058F03EBC413C0DE44A0D4928BAF03428A9
:1019C00078F01EE4D719C12854F0393C3EF039288C
:1019D000C13C49285AF01EE450161EE4710D30280F
:1019E00016E01AE47A0D0AE44A0D1EE490090DE4AB
:1019F0004A0D49286AF01EE4FF110AE44A0DFEF17F
:101A0000A328DAF1A5284AF040BA40BA8EF140BACC
:101A10006AF10CBC0DE44A0D2AF106A18AF004A17A
:101A20009AF71EE43D090DE44A0D4EF71EE43D0908
:101A30000DE44A0D40BC0DE44A0DCEF630281AE004
:101A400021443AF004BCFDF23F3CC6E03300BDF255
:101A5000280800A466A5423C00A2433C443C453C07
:101A60002A280AF104BCFDF1433C02A1BAF00CBEE5
:101A7000ADF102AE3EA8443C0CBE5DF102AE3EA804
:101A8000453C3A2A4A2819E46A0D4A3C3C18B2F00F
:101A900002A22EE43C284A3C7A283AF000A24A3CB2
:101AA00002A22EE46AE1C12894F01EE48C19C12838
:101AB0001EE49319C1281EE49A1900A22EE4A52859
:101AC00016E02AE435282AE4382833182AE4A32823
:101AD00048F0362816E02EE436282AE43728311854
:101AE00016E02EE449E00FC7507E21AF02AE46E07B
:101AF0002EE41EE4380EF3D1000062E170021229D8
:101B0000E4CF2EE461E17002302802A13AF061E1F5
:101B100090024028043C62E1B0011EE4D50D2AE4A5
:101B2000F3D1000062E1B0014088220084E1910D10
:101B30001229E4CF302804A128E44128043C61E1C3
:101B4000B00262E1D0011EE4D50D2AE4F3D12000F9
:101B500062E1D0014188220084E1A70D1229E4CF7F
:101B60001EE4CA0E62E1D00102291EE47B0E1EE4CF
:101B7000A70EC534C63C022902AE00E060019EE01B
:101B80001721174D1723174FC710C81CC712C81E9F
:101B900010E011E046E024B608B6CF3C02291EE46E
:101BA000740E02A128B6CD3C022902AF00E0A001CC
:101BB0009EE00729CE3C02A22EE440BA98F00488A9
:101BC000220084E1DC0D1129123D02A22EE4C0287E
:101BD0002AE482E0083C122C32580034013C312CBB
:101BE000325832080234033C0428053C63E1E00526
:101BF00000A21FC7133D06BC0DE4350E6AF002A11A
:101C00003AF102A1BAF18EF21EE43D090DE4350E5F
:101C100002A00210031C12E032F00000010C02349A
:101C2000033C03A2DEF01EE43D090DE4350E02A0E4
:101C30000200030C0010011C0EF740BCFFA21EE4C2
:101C4000440EC4F1123D1EE45F0E052802A1053CBE
:101C500004A02AE41EF5082802A192E063E1E00551
:101C60000528A4F013291181E8F70129123D052860
:101C700002A1053C6EF702A22EE46AE100A22EE466
:101C8000C12824E4C2E00B02C2E01402C1281EE411
:101C9000A70EC334C43C2EE4063C073E63E1300289
:101CA000162802A124E402AE02A044CC84E15C0E1A
:101CB000132D0B2B061C071A78F069F086E002E062
:101CC000300202AF2EE413811381FEA22EE4093C00
:101CD000082892E0C02802A144CC84E16A0E0129C0
:101CE00009183AF011812EE482E0081800E0E005BE
:101CF00096E002A2033D2EE402AF04AE00E0010133
:101D00009EE007292EE402AF04AE00E003019EE04E
:101D100007292EE40A3C28CAF8F7C0E0420000E098
:101D200080010A0820CE11D1E00512D1200013D184
:101D3000030028CAF8F7C0E04100F022F14E42E06B
:101D400005E0EA060FAE0A0A42E020CE11D1E00516
:101D500012D1200013D1020028CAF8F72EE40A3C61
:101D600002AF06AEC1E0410042E0F022F14E42E097
:101D700005E0EA060FAE42E029CAF9F720CE11D1FC
:101D8000E00512D1040013D1030028CAF8F704E0DB
:101D9000E0059EE01721174D0A2A03A82BE417211E
:101DA000174D2EE461E1E0053EA21FC7113D40281A
:101DB00000E0B00194E0402A4088220084E1DD0E7A
:101DC0000A2900E0E00592E0013F03A1F9D10000FB
:101DD00062E1E00522D01F0084E1E70E1229F0CF76
:101DE0002EE41EE4CA0E2EE4F3D1000067E1B00138
:101DF00022D03F0084E1F50E1729E4CFF9D100008D
:101E000067E1E00522D01F0084E1FF0E1729F0CF23
:101E10002EE44EBA4D3C84A104E4F70F70A100E417
:101E2000F70F4D28C8A141BA003E1BF041BA013E50
:101E300041BA023E1AF040BA02AE024C02AE014C68
:101E400002AE004C003C46BA08E4F70F4EBA1C3C08
:101E500012A104E4F70F54A100E4F70F3EBC103CBC
:101E600002A21F3C4D28C8A1F8F206BC1F3C08BCCA
:101E700008E4F70F08BC08E4F70F40BA40BAB03CDA
:101E80003AF201A2B23EB43E60E1000040BA1AF15B
:101E9000B22A03AE56E0B23C80E01EE45511B42AEB
:101EA00003AE56E0B43C80E001A21EE488117EF04F
:101EB000B22A03AEB23EB42A03AEB43E80E002A022
:101EC00090E010A148F618BC0DE4F70F08A0113CF3
:101ED00002A21158123C04BC133C0DE4F70F02A1FE
:101EE00034F06AF01EF218BC08A0143CDEF140BACF
:101EF000153C1EE45709E734E83C1EE45709E93471
:101F0000EA3CFEBD0DE4F70FEB3CEAF002A144CC45
:101F100062E1500284E1870F1EE457091235123D39
:101F20001EE4C9101EF00DE4F70F20BC0DE4F70FFE
:101F3000163C40BA173CFEBC0DE4F70F02A0503C23
:101F4000FEBC0DE4F70F02A0513C5084518218E012
:101F50001B3C00A2193C40BA183C98F040BA193C0E
:101F6000512802AE513C1B2802AE1B3C1B2805E049
:101F7000002246E000E4F70FC0E0590002A138F06B
:101F80001EE4861040BA1A3C184CAAF340BA0A3C28
:101F90000B3C0C3C0D3C4AF11EE43D090A3C1EE49E
:101FA0003D090B3C1EE43D09182A29F002AE0C3C09
:101FB0001EE43D09182A29F002AE0D3C1DF2C0E0D6
:101FC000590006A1E8F01F2A0A200B4C2BF002AEA4
:101FD000C2E078000C200D4C2BF002AEC2E079007C
:101FE00000A2823C833C1D28DE3CDF3C40BA16E068
:101FF0001AE4DE105AF01EE4860902A22EE46AE119
:1020000000A22EE41EE43D09203C3EBC0DE48310FA
:1020100010181AF11008103C1EE44415663C05A285
:1020200023AE9FCC02A21EE4B30703A2943E66280F
:102030000AE4831040BA213C40BA223C0EBC0DE4B5
:102040008310233C08E483103EBC0DE48310243C41
:102050003EBC253C0DE4831040BA263C42BA273CE6
:1020600034BE0DE4831034A0283C04E4831068A13E
:1020700002E4831034BE0DE4831034A004E4831022
:1020800068A102E4831018BE0DE48310293C2D3CA6
:1020900040BA2A3C40BA2B3C40BA2C3C00A22E3C11
:1020A000B13C2028023C1EE408161EE4FA060AF39E
:1020B00040BA2E3C40BAB13C8AF201A2B33EB53ED2
:1020C00060E1000080E00CA12E182E1832F140BA19
:1020D0001AF1B32A03AE56E0B33C80E01EE455117A
:1020E000B52A03AE56E0B53C80E003A21EE4881199
:1020F0007EF0B32A03AEB33EB52A03AEB53E80E010
:1021000002A090E010A1F8F518BE6DF02D3C1EE481
:10211000860902A22EE46AE100A22EE41C2A15A17F
:1021200004E02901D7F203A104E0A30297F213A16E
:1021300004E0F60657F203A104E0EC0D17F213A138
:1021400004E0BB17D7F103A104E0BC3497F103A16D
:1021500004E0003C57F113A104E0006017F103A173
:1021600004E00066D7F011A104E0371408AE87F050
:1021700003A104E0C02108AE37F004E0BB1712AEA3
:102180001B8482E1800119E007C422D00F0084E1A2
:10219000C31046E034F0178190E18EE020A51D3C8D
:1021A0002EE4C0E04100F022F14E42E005E066037B
:1021B00011AE42E029CAF9F720CE11D1500212D156
:1021C000000213D1020028CAF8F72EE440BA4AF1FF
:1021D0004EBA01A25B3E5A3C02E0FF00D8F05EBA64
:1021E0005FBA5B3C5A3E16E017E056E028F04EF02E
:1021F00000A25A3C5B3C40BA2AF040BA40BA8AF08E
:1022000044BA40BA40BA4AF04EBA4EBA4EBA40BA90
:102210003AF00ABC0ABC40BAEAF07EBA90E161E149
:102220005C001135113D7EBA90E161E15E0011352F
:10223000113D40BA40BA823C16E061E1BC051AE4A7
:102240003911DAF140BA833C16E061E1C1051AE4C4
:1022500039115AF18228834C2AF040BA40BA4F3CD7
:1022600040BAAAF040BA20BC20BC20BC20BC20BC94
:10227000DE3C20BCDF3C6AE102A22EE46AE100A25F
:102280002EE41EE43D0944CC613C02A0113D46BA57
:1022900046BA84E147111EE43D091EE43D0940BAF7
:1022A00048BA02A0113D48BA02A0113D48BA02A0A6
:1022B000113D48BA113D02A22EE422D00F000CA11C
:1022C00034F022D03F0061E1E00510A2063C073C5B
:1022D00000A2083C093C9CE09EE084E185110728AF
:1022E0000AF11EE457092DE4060800E0000108E0A9
:1022F000FF00073C094C1AE016E09EE002A2093CF0
:10230000072828F00628063C8DE003A09DE003A8DE
:1023100059F085E011AE56E0113D94E08EE02EE4D8
:10232000083E063C11A2073E0CA164F090B60CA03A
:10233000063C40A2073C0628082A2BF01CA008AE49
:10234000063CC0E04100F022F14E42E005E073039C
:1023500011AE42E0060829CAF9F720CE11D1E005F6
:10236000072824CE13D1020028CAF8F72EE4C0E0D3
:1023700065000CAF0EA82AE428CAF8F7C0E06A008E
:1023800020CE11D1C60512D10C0013D1030028CAEA
:10239000F8F710C467E1C605C0E0650008E0000179
:1023A000173D20A2173D3781C0E0650008E080009E
:1023B00004AE173D1B28173D3781C0E0650080A89B
:1023C00008AE742A69F04D2A85A12BF002A002A064
:1023D000173D1B28173D3781C0E065000CAF0EA8E4
:1023E0002AE428CAF8F7C0E06A0020CE11D1C60559
:1023F00012D10C0013D1020028CAF8F72EE4752878
:1024000002A82AE4C0E0450004AF02A82EE4312C63
:10241000D03C02A2D13C00A2D23CD33CA32816E07F
:1024200028E4A528CAF01EE4971240BA40BAF0B7D3
:1024300034B6D13C00A2D03C02A22EE440BA48F00F
:1024400002A2D23C2EE416282AE402AE093C12284D
:1024500032580034013C312C325832080234033CEB
:102460000CBC0DE494120AE4921202A1BAF002A18B
:102470008AF102A1FAF102A15AF302A1CAF30EE411
:102480007A121EE43D090DE4941202A00210031C0E
:1024900012E032F00000010C03A21EE49E121EF6B0
:1024A00040BC0DE49412FFA21EE49E120AE49412B2
:1024B0008EF51EE43D090DE4941202A00210031CE7
:1024C00012E032F00000010C063C02A8324421BCAC
:1024D0004DF3325A41E0073E1EE4B612EAF20EE432
:1024E000281220BCADF202A1325832081EE4D112EB
:1024F0000EE428121EE4971202A2D33C00A2D03CA4
:102500000EE4281220BC9DF1D03CD028325832086D
:10251000FFA21EE49E12A8F732289AF0342878F021
:10252000D02802AEFFA21EE49E12B8F7FEA2D13C54
:102530000EE4281202A22EE46AE100A22EE410C4E6
:1025400061E1F10100A21FC7313D2EE4043C053ECC
:1025500061E1F0010988220084E1B112112D092BFB
:10256000041C051A68F059F0118100A2093D5EF0C3
:102570001181118100A22EE402A22EE40728FFA2FD
:102580001EE49E12C8F761E1F0010988220084E18F
:10259000CC12112D092B061C78F067F00728113D8D
:1025A000FEA2093D5EF01181118100A22EE402A27B
:1025B0002EE4083C61E1F0010988220084E1E11287
:1025C000112D092B081856F043F0118100A2093D86
:1025D000118111812EE416284E1812F14E88220026
:1025E00061E1020184E1F51211296AF0092912E47E
:1025F0008C1900A2113D82E006A092E016282CB6AC
:102600004E3C132804A128E41EE495142EE413285C
:1026100002A134F0FAF0BEF21474E33C322816E062
:10262000224418E457092DE4E434E53C1EE4D613B3
:102630000EF200A2E334E43CE534E63C1528F8F061
:102640001EE457092DE4E334E43C22288AF03228C2
:1026500068F01EE457092DE4E534E63C1EE412144C
:102660008EF0E334E43CE534E63C3EF01EE45514E1
:102670003228332AB9F078F0C920CA4CCB22CC4E8C
:1026800066E06EF0C920CA4C3EF0CB20CC4CC7347B
:10269000C83C2EE41E284AF0132804A188F0C12863
:1026A000013C1EE493191EE4D2142EE4A528D34C59
:1026B00018E49514D82802AE00E0780592E0C7200F
:1026C000C84C1135113DD82800E09A0592E0C12888
:1026D000113DD82802A0D83C00A20C3C1EE4B01941
:1026E00098F01EE49A140C2880A152F082A00C3CB1
:1026F0006EF72EE41EE486192EE4C12824E400E0DF
:10270000000792E0AA20AB4C5084518219E01EE4ED
:10271000871349E041A127F040A2013D2EE40A3E83
:1027200001A232F012E003A20E3E0B3C20AF0FC715
:102730000A7C0C3C20AF20AE0B4C0FC70A7C0D3C32
:102740000C200D4C0E2A2BE412E02EE41EE4F711AF
:102750004AF01EE49514BEF07F284AF01EE495145A
:102760006EF0DC284AF002A1DC3CEEF1DB28CAF175
:10277000DA2800E0AB0592E0DA2802A0DA3C22A1D8
:1027800028F0DA3CDB2802A1DB3C7F28BAF0DB280A
:102790005AF001291EE49A19AEF61E283AF0DE28F6
:1027A000DC3C01292EE41EE4F71178F06C2858F087
:1027B0007D283AF0FCA22EE4FEA22EE402A21458D8
:1027C00002AF063CA528D72A78F099F0E620E74C1E
:1027D000E822E94E7EF000A201A24EF000A2EA2219
:1027E000EB4E0034013C0236033EE32E0212031E80
:1027F00071F013E0061E85F0060C060C5EF0061E56
:1028000037F0061C061C0434053CE30CC934CA3CF2
:10281000E400E50CCB34CC3CA328CAF0C920CA4C58
:10282000EA34EB3C0420054CE634E73CE32CE83486
:10283000E93C2EE41EE46614EB280AF30020014C68
:10284000310CC6F2A32A17E046E002A174F288E137
:102850000F00EB7C0234033C1EE48014EB2802A141
:1028600044CC61E1500200A284E12F141101110D4A
:1028700002AE043408E0FFFF02AF053C038404828B
:1028800018E01EAE05821CE061E1500202882200C1
:1028900084E143141101110D2EF000A2A32A39F096
:1028A000E700E80CE300E40CC934CA3CE900EA0C98
:1028B000E500E60CCB34CC3C2EE41EE46614A528DF
:1028C00016E08AF00020014C310C02AEA32A17E07A
:1028D00046E0C934CA3CCB34CC3C2EE4D7285AF06D
:1028E00000A2E134E23CE03CA52816E09AF0E120A9
:1028F000E24CE02E311E47F003A2115A42E00034B0
:10290000013C3128E03C0020014CE134E23C2EE463
:10291000C0E04100F022F14E42E005E0660311AE56
:1029200042E029CAF9F720CE11D1500212D100029B
:1029300013D1030028CAF8F72EE4D82826E41EE4B1
:102940009A14CEF7D82826E461E1780562E178058B
:102950001121114D01A2003E03A2D82804A1E4F0E8
:1029600044CC84E1B41412210A4D1111111D54F00C
:1029700082E004A194E0003E03A084E004A092E081
:10298000002800E09A0598E002A096E00429013CA6
:102990001EE49319D828001804A1A4F044CC84E1C3
:1029A000CE141129123D1129123D1329143DD828A6
:1029B00002A1D83CD92800E0AB0592E00128013DF6
:1029C000D92802A0D93C22A128F0D93CDB2802A0BA
:1029D000DB3C2EE400A2683C04E054009CE0D428D8
:1029E00002A144CC84E10015069E685C02A8B8F000
:1029F000682849E001E018059FE0072B09A819E4C1
:102A00009A195EF0682809A21EE4A919682A03A091
:102A1000683E2EE404E018059EE004E054009CE0CB
:102A2000D42802A144CC00A2683C84E11615172BDF
:102A300005AF03A8685A56E0682A03A0683E069FBF
:102A40002EE461E1E00500A2113D023C22D01F010D
:102A500084E126151EE40616022802A0023C00A20C
:102A6000943C903C913C2EE44EBA40BA40BA40BAF5
:102A700040BA46BA4EBA3EBCDDF0003C101838F001
:102A8000FEA2103C002800E000011EE48E1502A208
:102A90002EE46AE100A22EE404A2943C102800E097
:102AA00000011EE4D8152AE41EE4010F5AF01EE4CA
:102AB000E31202A22EE4FEA2103C00A22EE41EE4C9
:102AC0003D09FDF0013C02E0FF00B0F001282018B4
:102AD00038F0FEA2203C01281EE48E1502A22EE44E
:102AE0006AE100A22EE402A2943C20281EE4D8153C
:102AF000DAF01EE4FA0F663C00A21EE4B30701A25E
:102B0000943E66283AF002A22EE4FEA2203C00A2E7
:102B10002EE4632802A16AF09220934C1EE4321640
:102B200070E48020814C1EE4411670E4023C1EE4F7
:102B3000081600A2033C61E1E005012903A2113F50
:102B4000CAF0A728011990F011811121114D043408
:102B5000053C02A2033C8EF09020914C0434053CCD
:102B600011811135113D1EE4251629CAF9F720CE31
:102B700011D10000A7280EA006AF02AE24CE13D1BB
:102B8000120028CAF8F72CCAFAF7A628A8F01EE403
:102B9000BB060420054C00E000020434053C4EF660
:102BA00061E1E105A728013D032A89F00EA006AFE7
:102BB00006AE9000910C9034913C1EE406162EE473
:102BC000023C1EE4081661E1E00511292AE41181A6
:102BD0001121114D0434053C942802A1BAF01EE4E1
:102BE00025161EE4321604A21EE4B30704E090008A
:102BF000AEF01EE425161EE4411602A21EE4B30741
:102C000004E0800066CC6ACC6ECC1EA06CCC00A226
:102C100060CC68CC70CC28E102A22EE404A22EF095
:102C200006A20A3C1EE4181629CAF9F720CE11D1D3
:102C3000E00512D104000A88130128CAF8F72EE42F
:102C4000C0E04100F022F14E42E005E06A0311AE1F
:102C500042E0022A07AE42E02EE4C0E04100F0224A
:102C6000F14E42E005E07A0311AE42E00422054E47
:102C700042E02EE429CAF9F720CE80A09234933C9A
:102C800011D1900012D1100013D1130028CAF8F707
:102C90002EE429CAF9F720CE80A08034813C11D1DE
:102CA000800012D1100013D1130028CAF8F72EE4C7
:102CB00016282AE402A1003CA3281AE0174418E4CD
:102CC0007F171EE492171EE4C6171EE4EB172EE4CE
:102CD000D3281AF1C920CA4CC710C81CC934CA3C31
:102CE000CB20CC4CC710C81CCB34CC3C00A2C73482
:102CF000C83C373C312CA52AD34E12B6D53C1628F9
:102D00002AE402A1003C3128013C342816E0D244D8
:102D100018E41517D2281AE44317342808E4D91602
:102D20001EE499162EE402AF04AE00E001019EE01D
:102D300007292EE402AF04AE00E003019EE007295C
:102D40002EE420C461E102010088220084E1A21681
:102D500001293AF031812EE482E002E0020104AF61
:102D60000A3C3B28093DD128093DD028313D098145
:102D7000C128113D82E000E05C0094E002E06001C7
:102D800002AF00E0400192E0C720C84C1135113D70
:102D90003B2A05A112210A4D3BF0C920CA4C12352D
:102DA000123D12210A4D35F0CB20CC4C1235123D8C
:102DB0000A2800E0A00192E006A23B181AE0013DBB
:102DC0002EE461E100010088220084E1E616112D65
:102DD000112BD01CD11A28F04BF0118111812EE457
:102DE00006A2013D82E000E05E0094E002E06001A6
:102DF00002AF00E0400192E002E0400102AF0A3C75
:102E0000C720C84C1123094F66E01135113D1EF44F
:102E100020C461E102010088220084E10917012930
:102E20003AF031812EE406A2093D02A2093D0128B3
:102E3000313D0981FEA2113D2EE400A220C461E1D2
:102E400002010088220084E11F17312B1BE042E0C1
:102E5000161824E403A221AE61E1020100882200D9
:102E600084E13C1709290AF10929D6F00129011C3E
:102E700026F0121C010C46E062F042E049E082E0DC
:102E800004A094E011811181318100A2123D122928
:102E900012E48C192EE461E1000162E1F001008886
:102EA000220084E17D17322898F01229023C122971
:102EB000033C1AE070B6043C5EF1122902AF023CFA
:102EC0001229033C1AE0043C12810A291AE002AEDE
:102ED000044C043C02A868F0122902AF023C0A2903
:102EE000033C0428128112818AF00228113D032834
:102EF000113D0428113DAEF011811181012901A27B
:102F0000113F4AF0012912E48C1911812EE4A52801
:102F100028E4342828E4D52C013C012802A00FC75E
:102F2000127C20AF013C311C2AE41EE415171EE47C
:102F300000174EF761E1000162E1F0010088220014
:102F400084E1BA173228C8F01129123D1129112B3A
:102F500007A816B6123D00A2123D123D4EF11129EE
:102F600002AE02A03318123D1129092B03A816B690
:102F70000A3D1229128102AA123D1129112B05A81E
:102F800016B6123D118161E1300262E1F00122D0FA
:102F90003F0084E1C4171229113D2EE43228D8F0F5
:102FA0001EE42D18082800E0700296E01EE46E185A
:102FB00008280908C03C2EE41EE42D1863E17002C5
:102FC00008281EE42C19083C00E0700296E01EE47C
:102FD0006E18082800E0700296E009281EE42C19FB
:102FE0000808C03C2EE4322858F11EE4A71808282F
:102FF00000E0900296E01EE46E18082800E0B0029F
:1030000096E01EE46E1808280908C03C1EE46F19FB
:103010002EE41EE4A71863E1900208281EE42C1990
:1030200063E1B00208281EE42C19083C082800E0DF
:10303000900296E01EE46E18082800E0900296E0E8
:1030400009281EE42C19082800E0B00296E01EE4CE
:103050006E18082800E0B00296E009281EE42C193A
:103060000808C03C1EE46F192EE461E1E00500A2EF
:103070000FC7113D322874B6053C00A2083C20C49D
:1030800063E17002FEA2063C03A221AE13E061E1FF
:10309000020162E1E0050088220084E15D18122946
:1030A00058F10929051814F10929E6F00129311C04
:1030B00026F0121C310C46E076F042E049E084E054
:1030C00002E0E105063C118111813181062824E4EA
:1030D00000E0E00594E002A2023D062802AE133DA6
:1030E000082802A0083C1618E8F42EE461E1E00587
:1030F00000A20FC7113D322874B6053C00A2093C5E
:1031000020C4FEA2073C21A261E1020162E1E005C8
:103110000088220084E19618122918F1092905185F
:10312000D4F00929A2F0012946E072F042E049E01A
:1031300084E002E0E105073C11811181318107281B
:1031400024E400E0E00594E002A2023D072802AE7C
:10315000133D092802A0093C161848F52EE461E148
:10316000E00500A20FC7113D322874B6053C00A24D
:103170000A3C20C463E1900264E1B002FEA2063C76
:10318000073C61E1020162E1E00565E14001008880
:10319000220084E1F2181229C8F20929051884F2E4
:1031A000092956F215210D4DC710C81C10F106282B
:1031B00064F015210D4D0C100D1C96F115210D4DCF
:1031C0000C340D3C84E002E0E105063C0EF10728DA
:1031D00064F015210D4D0E100F1C92F015210D4DB0
:1031E0000E340F3C84E002E0E105073C11811181BF
:1031F000318115811581062894F000E0E00594E006
:1032000002A2023D062802AE133D072894F000E01A
:10321000E00594E002A2023D072802AE143D0A2810
:1032200002A00A3C161808E4B61886E002E09002F4
:103230000C3C88E002E0B0020D3C9AF002A144CCC4
:1032400064E1B00284E11D191429133D0C289AF0A1
:1032500002A144CC63E1900284E127191329143DB3
:103260000C280D08083C2EE42AE402A10C3C86E060
:1032700098E061E1E0050C88220084E14719032908
:1032800002AE00E0020194E0022902A83AF003290C
:10329000113D022904A84AF0032902A0113D13811F
:1032A00082E002E0E0052AE402A10C3C0D3C332858
:1032B0000E3C61E1E0050C88220084E15C190129E3
:1032C00044F002A80E186AF011810E2816E00E3C98
:1032D0001EF70129143DFEA2013D0E2816E00E3C0A
:1032E0000D2802A10D3C62F60C2802A02EE4C02895
:1032F00002A126E444CC63E1900264E1B00284E1DF
:103300007C191329141928E490E163E1910264E126
:10331000B0020B29143D0329143D2EE461E1180588
:1033200000A21FC7113D2EE400E018059EE007290A
:103330000CA8073D2EE400E018059EE007290AA826
:10334000073D2EE4D63C00E018059EE0072906A8BC
:10335000073DD62802A0D63CD41838F000A2D63CAF
:103360002EE400E018059EE0072956E0073D2EE414
:1033700061E11805D42802A144CC00A284E1BB1964
:10338000112B07A81BE042E0DF1802A11AE02EE48F
:1033900061E11805D42802A144CC84E1CA1911299D
:1033A00016E0B8F090E1772A03A0773E41A127E428
:1033B0001EE48619773C2EE401A2773E2EE4D6283F
:1033C000003C002800E0180592E001292AF10028BD
:1033D00002A0003CD41838F000A2003C0028D61807
:1033E00018F700A2D63CFEA2C13CC2E077002EE452
:1033F0000EA2013D0028C13CC2E077002EE41EE48D
:103400003B1CC0E0600049E061A82BE449E03EA815
:10341000AF3C0BAFAE3E4828C2E0430100A2C2E081
:103420007F01C2E0490100A21EE40D1EC2E07F013F
:10343000502802A120AE514C02A1C2E04201AE28A8
:1034400008AEAF2A1FA856E0C2E04E01C0E06100FE
:103450007EA8C2E0440100A2AD3C1EE4391A1EE47D
:10346000501AAD28FEA8511898F704A21CAEC2E06D
:103470004D0102A2C2E04A0190E1C1E04B01E9F72F
:103480002EE405A2AD2815B603A90D3E482800E09C
:10349000000792E0012904AE0D4C1CAEAD4CC2E019
:1034A0004D0102A2C2E04A01C1E04B01E9F72EE45E
:1034B000AD2800E08000AD3C0EAF501828E4AD28E8
:1034C000FEA802A0AD3C2EE400A2A23CA62898F0E3
:1034D00002A2A03CA23CA13C36D0FF0037D0800025
:1034E0006AE14A28523C1EE4A71A212838F15228E2
:1034F0003C18D2F01EE4EA1AEDF13A2818E4EA1A70
:10350000ADF186CB02A140F794C828F71EE48609E6
:103510002EE41EE4D61A52283C18A2F01EE4EA1A41
:10352000ADF03A2818E4EA1A6DF060BB5AF71EE4D1
:1035300088092EE46AE12EE4A52816E0303C1EE45A
:10354000A71A52280D18B2F01EE42B1B3A2818E4D3
:103550002B1B4C2802A03A084C3C4EF72EE429289D
:103560002D181AE004AE434C0AAE444C0AAE454C4A
:1035700030CF41280AAE404C04AE304C82CFC3D18C
:103580000000422896CF412808AE404C02AECF4CF6
:1035900002AECE4C02AECD4C02AE3E4C04AE304C30
:1035A000C4CF4688FA01C520C64CC8CF88D10100D7
:1035B000302804A128E4E5D102002EE468C80EA852
:1035C000973C977404E0FE0186CC50BA88CC302832
:1035D0001AE03F080CAE424C82CC40D0030084C8B5
:1035E000F8F72EE45228C2E03F0085D10200D0D186
:1035F0003F0090E180E1A22818E43D0881E1A0CBE2
:1036000010A8A3CB09E4211BB8F700A20C3C1EE4D0
:10361000651C1EE4501AE0CBF8F756281AE4AB1CE0
:10362000A0CBA3CB09E4211BC8F786D1010085D12B
:1036300004001EE4431D06CB523C8ACB04AF214458
:103640002AE404E0FE0186CC50BA88CC40D00100C8
:103650002EE4D0D10000D1D100001CCBF8F7E0CB94
:10366000F8F76BE12EE45228C2E03F0085D102005A
:1036700086D10000C2D10100C5D10000C4D1000034
:10368000D0D10E00A0CBF8F7302898F0C2D10000BE
:10369000C5D10300C4D10300C8D10000D0D120009F
:1036A0001EE4651C1EE4501A00A2C2E02A01E0CB11
:1036B000F8F756281AE4AB1CA0CBF8F786D1010026
:1036C00085D1040002A20C3C1EE4431D06CB523CF3
:1036D0002EE400A2C2E00001C2E03D018ECC04E075
:1036E0004E00C2E07C0118A2C2E07D01C0E05000A3
:1036F00049E008E07F00083C11AF09E07F00093E87
:103700000846083E00A2082A03A83BF00AE002008F
:10371000082A05A82BF012A9082A09A82BF040A90D
:10372000082A11A82BF080A9C2E00C04C1E04100D6
:1037300004E0000010AE42E0092A03A85BF061E15A
:10374000D2051121114D0ECFC1E0410004E040002F
:1037500010AE42E0092A05A85BF061E1D405112111
:10376000114DC2E0030102A2C2E0100200A2C2E0B9
:1037700015021EE40D1E1F2A17E009AE56E003A233
:1037800011AE56E0C2E01302C1E0410004E0700057
:1037900010AE42E0092A09A85BF061E1D6051121CB
:1037A000114DC2E01102C1E0410004E0700000E0F0
:1037B000400010AE42E0092A11A85BF061E1D80593
:1037C0001121114DC2E012025020514C08AEC2E04E
:1037D0000101C2E0050200A21EE40D1E1F2A17E02F
:1037E00007AE56E0C2E002013A2802AE324C02AE09
:1037F000334CC2E00401C2E0040200A2C2E00802AD
:1038000000A2AF3CAE3CAD3C482804E42E1CC0E016
:10381000600049E061A80BE42E1C49E03EA8AF3CE3
:103820000BAFAE3E4828C2E0430100A2C2E07F01D8
:10383000C2E049011EE40D1EC2E07F01502802A132
:1038400020AE514C02A1C2E04201AE2808AEAF2A20
:103850001FA856E0C2E04E01C0E061007EA8C2E0B1
:10386000440134284AF0512802AFAD3C1EE4A21DA9
:1038700006A2C2E012031EE4BB1D1EE4F30A02A26C
:10388000C2E006012EE400A2C2E00001C2E03D0158
:103890008ECC04E04E00C2E07C0118A2C2E07D01A3
:1038A00000A2C2E015021EE40D1E1F2A17E009AE99
:1038B00056E003A211AE56E0C2E013025020514C74
:1038C00008AEC2E0010100A21EE40D1E1F2A17E08F
:1038D00007AE56E0C2E002012EE402CB02AFC2E026
:1038E0001301C2E00D0315CB03AE56E0C2E02B027C
:1038F00094CBC2E015017EA8AA22AB4E42E0AA34C6
:10390000AB3CAF28AE4C7AF103A2AD2815B60D3E04
:1039100003A20E3E482800E0000792E0012902AE13
:103920000D4C02AE0E4C1CAEAD4CC1E04B01E9F7A4
:10393000C2E04D01A4CBC2E02A018ACBC2E014014F
:1039400002A8563C2AE414CB0AAE19CB56E0C2E0DA
:1039500020018CCBC2E021018ECBC2E0220190CBB2
:10396000C2E023012EE4D0CBC2E00C03D2CBC2E0F4
:103970000903D8CBC2E00A03DACBC2E00B03462826
:10398000C2E020032AE44728C2E02103F6CBC2E0CC
:1039900022032EE4C0E0650080A89AF2742878F231
:1039A00000A20A3C0B3C5628C8F0D0CB0CAF0A3022
:1039B00002AF0B300A281EAE0A3C0B281EAE0B3C91
:1039C0000E2806A802AE02AE00E0C4069EE0C0E0EB
:1039D000B0031EE4EF1CC0E0C0030B2A0A3E1EE445
:1039E000EF1C0E2806A806A11AE4FC1C2EE40A2AE5
:1039F0009BF049E020AF08E0FF7F0A4C173D173FDE
:103A00002EE4173F173F2EE428CAF8F767E1D005E8
:103A10001721174D0E2A05AF0BAE12D1100042E050
:103A200020CE11D1C40613D1020028CAF8F72EE423
:103A30000E280EA802AF00E0C0069EE094CB08E07E
:103A40003F000C2A0FAE56E0762A0DAE56E00E2A45
:103A500003A849F010AE073D6EF0072B09E000FF08
:103A600056E0073D0E280EA80EA11AE4301D2EE4E4
:103A700028CAF8F767E1CC051721174D0E0806AFE5
:103A800006AE20CE11D1C00612D1040013D102001F
:103A900028CAF8F72EE4C0E0650008E0C000FAF19B
:103AA00052283A2ACBF0AD2A0FAFAD287EA8093CA8
:103AB0005084098218E042E002A14EF0342A2BF033
:103AC0003C080E3CC0E0650008E0800018E4101DD2
:103AD000C0E0650008E0400018E4C21CC0E011012D
:103AE000E8F702A2C2E01001AF2808AFAE4C2AE40A
:103AF00002A2C2E04A012EE4C0E01101E8F73C282E
:103B0000342A2BF01B280E3CC0E0650008E0800042
:103B10005AF00E280EA818E4301DC0E0650080A8F9
:103B20005AF00E2806A818E4FC1CAF28AE4C2AE474
:103B30003228345428E4C0E04B01E8F704A21CAE5C
:103B4000C2E04D0102A2C2E04A0190E1C0E04B0197
:103B5000E8F72EE402A2C2E0020316282AE402A13A
:103B600044CC60E1040061E1030163E1800384E18E
:103B7000B61D312D08B6039F13811381138100A256
:103B8000C2E002032EE467E1DA051723174FC3E012
:103B90005201172B09E0FF0021AE074FC3E053018C
:103BA000C1E00101C3E05D0162E1B001122902AF91
:103BB0000A3C122902AF0B3C302804A168F062E1F4
:103BC000D001122902AF0B3C0A280B18D8F062E191
:103BD000B00122D01F0084E1EA1D122902AF0B3C84
:103BE0000A1828F090E10B2802AE1EE47B0E49E093
:103BF00011AE0A2802AE1EE47B0E55E021AE67E14D
:103C0000DC05072910AF08E01F0055E0C3E05C01A8
:103C100002A2C2E05001C0E05001EAF700A2C2E0F7
:103C20005001C0E05101E8F72EE4C1E044000FA8C4
:103C300056E02EE4C1E044000DAF03AE56E07EA88E
:103C40002EE403A2C3E00D04C1E0200403A8DBF7C7
:103C500066E1000667E10005D428B6F102A144CC74
:103C600084E13F1E00A21EE40D1E04AF1EE4121EDE
:103C700020AE674C179F5020514C08AE179F16215D
:103C8000164D179F1621164D179F1621164D179F7B
:103C900001A2C3E00D042EE4C0E0440020AF02A85E
:103CA00028E4C0E0600060A82AE4C0E061003EA80B
:103CB00003A2C3E00D04A4CC85C718E000E0000512
:103CC0009EE0C1E0200403A8DBF700A21EE40D1E65
:103CD00004AF1EE4121EC1E0440017AF03A80BE4BA
:103CE0006A1E1EA820AEC1E06E0009E0FF1F56E06C
:103CF000179FC0E0600022A822A14AF05020514C3A
:103D00003EF05120504C08AE179FC0E06200179F54
:103D1000C0E06300179FC0E06400179F01A2C3E0EA
:103D20000D042EE490E190E190E190E190E190E1CA
:103D300090E190E190E190E190E190E190E190E1FB
:103D400090E190E190E190E190E190E190E190E1EB
:103D500090E190E190E190E190E190E190E190E1DB
:103D600090E190E190E190E190E190E190E190E1CB
:104610001EE4E6211EE484221EE491211EE4611BB7
:1046200000A2523C4A3C02A2883C1EE45C1A762856
:1046300002AA763C52283C1802E476211EE4720657
:10464000A428DAF702A13AF108A194F70AF10AA125
:104650000AE4762102A10AE4762102A10AE45E219D
:104660000EA1D2F60EE46A213C284A3CA3281AE0A7
:10467000842A1BE05AE008E46A21A528851808E48A
:104680006A211EE418071EE409239AF588286AF0B7
:104690003C280D3C1EE4941A6EF21EE43907A32850
:1046A000843CA528853C1EE4A90B0AE4162101A23E
:1046B000883E4A280D3C521804E4162110E4941A4E
:1046C0004A283C1802E476210EE40D210EBA02E0DD
:1046D000FF0058F04EBA1EE4EC0698F71EE4860977
:1046E0000EE4162152283C1802E472213C280D3CAD
:1046F0001EE4941A8428A33C8528A53C1EE4741D5E
:104700001EE47D21CCCBF8F72EE45020514C08AEAE
:10471000C2E06F005B205A4CC2E07C0067E15C00A5
:104720001721174DC2E07E001721174DC2E0790016
:104730002EE41F2802AE2E4C0AAE2D2A3FA856E0CA
:104740000AAE292A3FA856E002AE1A4C02AE214C0E
:1047500002AE3A4C80CFA528342A29F0743CA32815
:104760001AE002AE184C02AE1A4C02AE3A4CC2CF5E
:10477000502802A102AE2B4C02AE324C02AE334C9A
:1047800002AE3A4C00CFD3D10B0085D10100C3203B
:10479000C44CC6CFE5D1010020C461E1010100A2F3
:1047A00022D00F0084E1CE21312B02AE2AB4E8CF13
:1047B000C720C84CEACFC920CA4CECCFCB20CC4C88
:1047C000EECF04E0600030CE61E1600122D01F0036
:1047D00084E1E4211121114D32CE2EE400A261E1E9
:1047E000B60007C7113DB028B14C28F02EE461E1B6
:1047F000B6000EA2003CB0289AF3B228005C02A8D2
:1048000008F1002A0FA149F002A2113D7EF1002A11
:1048100009A149F004A2113D1EF10AA2113DEEF0DA
:10482000B428005C02A88AF000280AA105A224F09E
:1048300003A2113F3EF006A2113D002802A1003C58
:1048400002A1C8F5B2280CE0FF00B42A56E0005CD3
:1048500002A86AF003A2002855B6113F3EF006A256
:10486000113D002802A1003CEAF661E1B6000EA26B
:10487000003CB1282AE4B328005C02A888F1002893
:104880000EA188F0B02A3BF01181E9F102A2113D9E
:10489000BEF1002A09A189F0B02A3BF0118149F14B
:1048A00004A2113D1EF10AA2113DEEF0B528005CF4
:1048B00002A88AF000280AA105A224F003A2113F51
:1048C0003EF008A2113D002802A1003C02A148F5DB
:1048D000B328005CB04C02A868F003A2002855B6CB
:1048E000113F6EF1B5280CE0FF00B32A52E0005CE6
:1048F00002A8C8F0B328005C02A86AF003A200284E
:1049000055B6113F5EF011813EF008A2113D00281E
:1049100002A1003CEAF52EE402A2C2E03C0100A2A2
:10492000003C013C61E1B60062E1C804112904A128
:1049300066F006A10AE4D32204A012F104A006AE98
:10494000043C00280CA164F0042804AE00E0180028
:10495000043C04E050040408043CEEF201A2023ED0
:1049600011A2033E4AF005E0E000023E0028002AC2
:1049700009AE0CA15AF002A158F005E0A00040A237
:10498000033C020A023EC0E04100F022F14E42E048
:1049900005E0730311AE42E0020829CAF9F720CE00
:1049A00011D1E005032824CE13D1030028CAF8F75B
:1049B00004E0E005043C00280CA10FA224F03FA273
:1049C00045CC042896E084E1ED2212290108C2E0DA
:1049D0003E01032B11AFC3E03F0112290108C2E0E1
:1049E0003E01132B09E0FF00C3E03F0162E1C80470
:1049F000012A01E01000013E002802A0003C0CA1A9
:104A000004E48E2262E1D8040AE48E2201E0300040
:104A1000013E04A108E48E226AE100A2C2E03C014A
:104A20002EE400A2883C1EE43D090DE470233A2ADE
:104A300019E46A0D3C1802E4702312BC0DE47023E3
:104A40000AA1A8B404A100E47023FEBD0DE4702304
:104A500020183AF002A2883C117431183AF002A2F0
:104A6000883C1828D8F040BA32183AF002A2883CA4
:104A700032286AF040BA33183AF002A2883CA528DE
:104A80009AF01EE43D090DE470233D1C3AF002A2A9
:104A9000883C132802A134F04AF19EF21474E31CFE
:104AA0003AF002A2883C322816E022440AF21EE4C0
:104AB0005709FDF1E410E51C3AF002A2883C7EF1B2
:104AC000152858F11EE457094DF1E310E41C3AF0A3
:104AD00002A2883C322816E022449AF01EE45709CC
:104AE0008DF0E510E61C3AF002A2883C02A22EE40A
:104AF0006AE100A2863C2EE490E190E190E190E131
:104B000090E190E190E190E190E190E190E190E11D
:104B100090E190E190E190E190E190E190E190E10D
:104B200090E190E190E190E190E190E190E190E1FD
:104B300090E190E190E190E190E190E190E190E1ED
:104B400090E190E190E190E190E190E190E190E1DD
:104B500090E190E190E190E190E190E190E190E1CD
:104B600090E190E190E190E190E190E190E190E1BD
:104B700090E190E190E190E190E190E190E190E1AD
:104B800090E190E190E190E190E190E190E190E19D
:104B900090E190E190E190E190E190E190E190E18D
:104BA00090E190E190E190E190E190E190E190E17D
:104BB00090E190E190E190E190E190E190E190E16D
:104BC00090E190E190E190E190E190E190E190E15D
:104BD00090E190E190E190E190E190E190E190E14D
:104BE00090E190E190E190E190E190E190E190E13D
:104BF00090E190E190E190E190E190E190E190E12D
:104C000090E190E190E190E190E190E190E190E11C
:104C100000A24FBA42E003E0FF00CBF7533C00A2F2
:104C20004FBA42E003E0FF00CBF7543C1EE41721EB
:104C30002AE41EE4EC06D8F61EE486092EE4532886
:104C40000AF102A11AF104A12AF102A13AF102A18A
:104C50004AF1542A4BF04EBA03A1E9F702A22EE41E
:104C60001EE43F21DEF01EE46621AEF01EE4AA2120
:104C70007EF01EE4BA214EF01EE4BD211EF02AE4AF
:104C800068C80EA816E028E41EE486092EE43EBC9F
:104C90001018DAF01008103C1EE44415663C00A21F
:104CA0001EE4B30701A2943E66282AE4822861E14B
:104CB000BC0518E45A21832861E1C10518E45A2192
:104CC00002A22EE4112902A144CC84E1642101292D
:104CD0001EE47A0901291EE47A092EE4822861E1A2
:104CE000BE0538F061E1C305834C9AF011291EE43A
:104CF0007A0911291EE47A0911292EF030A2023C0A
:104D00004F2816E028E446BA12A104B62AE412A0FD
:104D100049E000A207A126B405A126B405A1F6B575
:104D200044CC84E1A72140BABAF142BA40BA48BAA9
:104D300040BA033C40BA40BA4EBA032858F04ABAC7
:104D40004ABA48BAAEF040BA8AF04ABA40BA5AF003
:104D50004ABA40BA2AF048BA02281EE47A0990E119
:104D600002A22EE45428DAF002A144CC04E0FF00B1
:104D700084E1B3214FBA52E002E0FF0016E02AE4DA
:104D800002A22EE41EE4C1212EE41EE4C12102A2EF
:104D90002EE4C0E0650078A840A1AAF0542802A142
:104DA00044CC84E1CC214EBA90E10EE4272201A24A
:104DB0001EE46D22072902A00C3C173D20A1F0F64D
:104DC000072954080EA006AF06AE49E01FAFDBF07E
:104DD00001A21EE46D2217811781072902A2073D57
:104DE00001A21EE46B22BEF5173D01A21EE46B2258
:104DF00067E1E0055328173D5428173D0C2A1EE4AF
:104E00006B2200A20B3C00A267E1E00503C7173D3F
:104E100067E1E0050B2802A00B3C4FBA6F2802A007
:104E20006F3C02A858F00A2810AE56E0173D0A3E23
:104E30006F280EA81AE42B2254280B18C0F66F28EE
:104E40000EA8EAF06F2A03A84BF00A2810AE173D0F
:104E50006F2A0FA007AF07AE6F3E18E42B220EE4B7
:104E6000292202A22EE4C0E06C0000E088006F1846
:104E700042F2C0E0650012AF02A8DAF001A21EE41F
:104E80006D2217811781072902A2073D01A21EE4A6
:104E90006B222EE404E00002C1E05D0055E0C3E0B7
:104EA0005D0002A200CEC0E05D0008E0000290E1DB
:104EB000B8F704E090006F3C28CAF8F7C0E06B0038
:104EC0006F0810A120CE11D1E00512D1040013D13A
:104ED000020028CAF8F700A267E1E00503C7173D02
:104EE00067E1E0052EE404A22EF006A20D3C28CADC
:104EF000F8F7C0E06B0007AE42E020CE11D1E0052C
:104F000012D104000D88130128CAF8F767E1E00503
:104F10002EE490E190E190E190E190E190E190E168
:104F200090E190E190E190E190E190E190E190E1F9
:104F300090E190E190E190E190E190E190E190E1E9
:104F400090E190E190E190E190E190E190E190E1D9
:104F500090E190E190E190E190E190E190E190E1C9
:104F600090E190E190E190E190E190E190E190E1B9
:104F700090E190E190E190E190E190E190E190E1A9
:104F800090E190E190E190E190E190E190E190E199
:104F900090E190E190E190E190E190E190E190E189
:104FA00090E190E190E190E190E190E190E190E179
:104FB00090E190E190E190E190E190E190E190E169
:104FC00090E190E190E190E190E190E190E190E159
:104FD00090E190E190E190E190E190E190E190E149
:104FE00090E190E190E190E190E190E190E190E139
:104FF00090E190E190E190E190E190E190E190E129
:1050000090E190E190E190E190E190E190E190E118
:105010000EE4200070E490E170E490E170E490E12F
:1050200070E490E10EE4780170E490E170E490E1C6
:1050300070E490E170E490E10EE4920170E490E19C
:1050400070E490E10EE4380070E490E170E490E1E7
:1050500068E127D0010002A2C2E00800C2E05800C7
:1050600000A2C2E05A00F03CF13CFEA2EE3CEF3C54
:10507000EC3CC0E05C0002A8C2E05D0000CEEEF2B5
:105080001EE468019EE002A23EAE079FC0E05C0005
:10509000C1E05900ED3E03A2ED5A52E0C1E05D00CF
:1050A00055E0C3E05D0002A200CE00A2C2E05900BC
:1050B000C2E05800C2E008000EF0C0E05C00C1E0B1
:1050C0005900ED3E03A2ED5A52E08AF0C1E05D00C6
:1050D00055E0C3E05D0002A200CEC0E03D04EEA1B9
:1050E000D8F704E06000C2E0090000A2C2E00900B5
:1050F000C0E00D00E8F71EE4BB00C0E05A00EE1867
:10510000C1E0590015A136B6EE2A0AB618E42F01FF
:10511000C0E05B00C1E05E0011AE56E0EF18C1E0F8
:10512000590017A136B618E4E500C0E05A00EE18A1
:10513000EE2A0AB6C1E0590017A136B618E42301D9
:1051400071D02A2481E1C0E05A00EE3C1EE4340113
:105150001EE468019EE002A2079FC0E0590002AE73
:1051600000E078016AE100C07CE6C0E05A00EE3C55
:105170001EE43401C0E05B00C1E05E0011AE56E009
:10518000EF3C0EE4550000A2C2E05900C2E0580016
:10519000C2E00800C0E05900EAF71EA198F102A29F
:1051A000C2E0580004E020F020AE05E0091056E00F
:1051B000C2E0700004E0000020AE0AE0F150C2E05E
:1051C000710000A2C2E05900C2E058004EF602A2EF
:1051D000C2E00800C2E058002EE400A2C1E05B007B
:1051E000CBF228A203A19BF238A203A16BF244A246
:1051F00003A15BF160A203A10BF268A203A1DBF1A2
:1052000074A203A1ABF103A1FBF004E0560003A1DB
:105210004BF104E05C0007A10BF100A2C1E05E00CD
:10522000CBF010A0AEF004E03E00C1E05E005BF009
:1052300010A003A12BF010A016AEC1E0400041E089
:1052400028CAF8F721CE11D1000012D1002813D1BD
:105250000B00E1E12EE4C0E0590002A12AE4C0E025
:105260005A00EE3C1EE4340104E098017CE61EE4A2
:10527000340104E09A017CE6EE2808E0FF03A4CCA8
:1052800082E12F0018E0EE2E15AFA5CC82E12F00B1
:1052900019E015AE42E014AEF034F13C2EE400A269
:1052A00001C488E1EB00113D61E1F20088E10D0BE2
:1052B000113D2EE4EC3CC0E0410005E0480311AE96
:1052C00042E0F022F14E42E029CAF9F720CE11D196
:1052D000000012D1000CEC88130128CAF8F72EE464
:1052E000C0E0590006A148F004E076002EE4C0E0DA
:1052F00059000CA138F004E0710004E070002EE4C5
:105300000EE425070EE49C010EE4A0010EE4A401C6
:105310000EE4B0010EE4AD000EE4AD000EE4B80101
:105320000EE4BC010EE4AD000EE4AD000EE4AD00F1
:105330000EE4AD000EE4AD000EE4AD000EE4AD00F1
:105340000EE415050EE42B051EE4DD010EE4AD00B0
:105350001EE46F020EE4AD001EE4C41F4D2884A1BC
:105360001EE4C0011EE470021EE412200EE4AD0033
:105370004D2884A11EE4C0011EE4F2030EE4AD003A
:105380001EE429040EE4AD001EE4FA040EE4AD00B0
:105390002AE4C0E0400001A217AE42E029CAF9F7B2
:1053A00020CE11D1000012D1002813D10B00E1E171
:1053B0002EE467E1D20566E1640022D0030084E1B7
:1053C000DB01169E1735173D2EE430D100003AD090
:1053D00000004CD0000008D000001EE447011EE48D
:1053E000A81F1EE447041EE4711FFEA2103C203CCF
:1053F000483C00A244CCD63C4E3C4B3CC0E0620052
:1054000002AF1E3002AF06A8753C1EE496061EE4ED
:10541000EC161EE4871900A2CECF1EE48C056D2881
:1054200008E46A02A4280EA198F71EE4FF161EE401
:10543000B40628E11EE4B90F1AF7FEA2103C502072
:10544000514C08AEC2E071005B205A4CC2E07200C1
:1054500061E15C001121114DC2E07A001121114D72
:10546000C2E079001F2A0A200B4C2BF002AEC2E0EA
:1054700076000C200D4C2BF002AEC2E077005028D5
:1054800002E0800000F3512802E08000C0F21B28F7
:1054900002E0002280F21E28DAF0132804A1AAF00C
:1054A000DF2804A0C2E07300DE28DC3CC2E0740008
:1054B0009EF0162804A0C2E0730000A2C2E07400AF
:1054C000DC3C00A26D3C002804AE1A4C02AE184C25
:1054D00010AE1C4C10AE4D4CC2E07B0002A2C2E0EC
:1054E00070002EE400A26D3CC2E070002EE42EE4B9
:1054F00052D1000030D1000000A244CC4ACC4CCCA8
:105500004C3C623C4BD100021EE41F12C1E065001E
:1055100041A8ABF067E1E00503C7173D1EE40705AE
:1055200004E08800463C1EE4921E1EE4BD1E1EE4FC
:10553000C81F00A2CECFFEA2C2E07800C2E0790070
:10554000FCA2C2E07700FAA2C2E0710002A2C2E0AF
:10555000760000A2473C6E287AF01EE461071EE444
:105560006F0500A26E3C1EE467125AF002A26C3C6A
:105570000EE48D03752802A8AAF000A2693C6B3CDA
:105580001EE46F0604A2C2E075008EF01EE45C0407
:1055900028F02EE478282AF02EE41EE4B516E0D197
:1055A0000300FFD1B003FDD1000099D124023AD00D
:1055B00000004CD0000008D000001EE4C11948F0E3
:1055C000FFA2C3E077005AF0862888F06C286AF0C2
:1055D000482812E4F8190EE48D03FCA2C2E077001B
:1055E00000A2AA3CAB3C02A2633C1EE4BC0A1EE43F
:1055F0008C05A428DAF702A10AE4420308A184F783
:105600000AE4420302A17AF102A1FAF002A10AF12E
:1056100002A14AF102A16AF102A14AF102A1AAF291
:105620000EA162F60EE43D031EE4FF16FEF21EE438
:105630002617CEF21EE46F129EF244BA1EE49E08B4
:105640005EF26B285AF0752802A816E06C3C7F28A1
:1056500038F07D281AF0752802A88AF049286AF0E7
:10566000FAA2C2E071000EE4BF03632808E48D03D0
:10567000DEF00EBA02E0FF0058F04EBA1EE4090652
:1056800098F71EE49E080EE4EF0263280AE46A031A
:105690000EE4EF026328EAF002A2623C1EE4A808CE
:1056A0000AE4EF02A328843CA528853C00A2633CC1
:1056B0003EF1A3281AE0842A1BE05AE018F1A5283D
:1056C0008518E8F01EE471090AE4EF02012808E4F5
:1056D000EF02882858F01EE4DA0A0EE4EF021EE416
:1056E00028061EF0752802A84AF07E284AF37EF0AC
:1056F0007E280AE4E80202A128F08EF18428A33C67
:105700008528A53C1EE45D1A2F2802A02F3CA32863
:1057100048F0C1281EE48D19A32818E42D181EE4B2
:1057200017151EE44A15D328D73C6C284AF01EE40E
:105730006A16DC3C1EE4731532F06C2AB6B749E0F9
:10574000D41A45F0FAA26B2AF2B7C2E07100C0E0A9
:105750007100483C182802AE184C3AAE3028C2E01E
:1057600073004C28C2E072004B2C02A04B3CC2E0FC
:1057700070004AC84DC820AE56E0C2E053001EE497
:105780001F121EE4CC031EE4D51602A22EE41EE472
:105790001F121EE4CC031EE4D516FEA2C2E0720066
:1057A00000A2C2E076002EE4C0E0650008E000013F
:1057B0002AE467E1180566E1E00522D0070084E1EC
:1057C000E003172908AE174D08AE174D08AE174D68
:1057D000163D90E128CAF8F767E1C8051721174D73
:1057E00020CE11D1E00512D1080013D1020028CA41
:1057F000F8F72EE41EE4D101C1E0440009A833AE5D
:10580000C0E06A0067E1DA051735173DC0E06B00BC
:1058100056E01735073D28CAF8F7C0E0420020CE11
:1058200011D1000612D1C00013D1030028CAF8F725
:1058300000A21EE48B0A04E040001EE48B0AC0E0D4
:105840006000D43CC0E06100673C67E1F907C0E05C
:1058500062001735173DC0E06300173D1EE4921E3D
:105860002EE428CAF8F7C0E0420020CE11D1000093
:1058700012D1800013D1130028CAF8F7C0E06100EC
:10588000A73C02A2A63C1EE4B40628E1C0E06000EA
:1058900048F01EE4FF163EF01EE426172EE4C0E09A
:1058A000400001A217AE42E005E0004F03AE42E027
:1058B00029CAF9F720CE11D1500412D1C80013D152
:1058C000030028CAF8F72EE4C0E065007A3002AF82
:1058D000783002AF7F3002AF06A87D3CC0E06600A2
:1058E0007C3C7F285AF000A27A3C783C0EF17C2860
:1058F00028F07D3C7D28BAF07C2802A15AF000A255
:105900007A3C783C4EF0783C02A27A3C7A280AE451
:10591000F204EE287B3CC0E05A00EE3C1EE42F016E
:105920001EE48C05792808E4E304A428AAF702A160
:10593000AAF208A164F77AF202A1DAF102A1DAF080
:1059400002A12AF102A17AF104A166F102A19AF65C
:105950000EA172F60EE4B5047A2806A10AE4E30467
:105960001EE4FF16BEF07A2806A10AE4E3041EE452
:1059700026174EF03EF00EE4E3047A2806A10AE46E
:10598000E304FEF47A2806A1EAF002A2623C1EE4D7
:10599000A8087AF43028C2E07300A328843CA52824
:1059A000853C6EF1A3281AE0842A1BE05AE048F1F6
:1059B000A528851818F11EE471090AE48804012855
:1059C00008E4880488284AF07A2806A15AF006A23A
:1059D0007A3C0EE48804792802AAC2E075001EE42D
:1059E00023017B28EE3C00A27A3CC2E07200C0E0BA
:1059F00075002EE400A27A3C793C04A2C2E0750056
:105A000002A22EE400A29B3C1EE4B4061EE4B907E9
:105A100000A2353C1EE4C50602A26E3C2EE428CA54
:105A2000F8F7C0E06B0020CE11D1E00512D10400E0
:105A300013D1020028CAF8F72EE406A21EE4520190
:105A40001EE4A81F36A21EE43F0526A21EE4570549
:105A50001EE4031F1EE4B10A67E100081EE4FE060F
:105A60001EE414072EE434A21EE43F0524A21EE423
:105A7000570567E100081EE4D6061EE4EC061EE4A6
:105A8000B00A1EE43A1F04A21EE452012EE4EC3CCC
:105A9000C0E0410005E0600311AE42E0F022F14EAB
:105AA00042E049CA03A8E9F740CE21D1000022D143
:105AB0004000EC88230148CA02A8E8F72EE4EC3C39
:105AC000C0E0410005E0760311AE42E0F022F14E65
:105AD00042E029CA03A8E9F720CE11D1000012D173
:105AE0000001EC88130128CA02A8E8F72EE448D187
:105AF000400044D1000045D1000068D100006BD1C6
:105B000000004BD1000200A2863C04E0190018AE50
:105B1000C0CE4CD10C002EE444CC84E18A05A0CA4E
:105B20009BCAF9F790E12EE4862808E4490658D18B
:105B3000000104E0FF0014E0B8CE5DD100005ED1AA
:105B400000005FD1000004E0190018AE0AE0200454
:105B5000C0CE57D100004AD100004CD103009CCAEE
:105B600018E461076D28A8F2792888F29ACA88F7A4
:105B7000AECA02A8FAF69CCA18E4610706A21EE49F
:105B80008405003C9CCA18E4610700280EAF28F683
:105B900000280AAFA33C00283EA8A43C0AA116E0B6
:105BA000A53C00A2A83CA73CA03C1EE4D8051EE4EE
:105BB000B40628E100A23A3C2EE44CD102002EE4C7
:105BC000A028A14448F049D100003EF049D180000E
:105BD0004AD1000058D1000004E0FF0114E0B8CE23
:105BE0005DD100005ED100005FD1000061D10300F3
:105BF00004E0190018AE0AE03806C0CE4CD103000C
:105C00009CCA18E461079ACAC8F79CCAA8F79ECA3A
:105C1000A63C92CC94CAA800A70CA834A73C90CC70
:105C20002EE4A62816E071C811A028E407AF09E009
:105C3000FF07A72808E0FF0746E08AF049E011E0E7
:105C400015AF21E420E400A22EE468C80EA828F0D5
:105C500010A2953C957803A2955A03AF46E02EE436
:105C6000A328A52A8A3C8B3EA728A62A8C3C8D3ED9
:105C700002A2863CC0E04100F022F14E42E005E085
:105C8000640311AE42E029CAF9F720CE11D1000019
:105C900012D1800013D1120028CAF8F72CCAFAF7E3
:105CA0002EE48A288B2AA33CA53E8C288D2AA73C6B
:105CB000A63E90CC93CC00A2863CA83CA03CC0E081
:105CC0004100F022F14E42E005E0640311AE42E0F3
:105CD00029CAF9F720CE11D1000012D1800013D1CA
:105CE000130028CAF8F71EE4B40628E12EE400A247
:105CF0009B3C752804A85AF0C0E068009834993C91
:105D00009820994CC1E0670042E0C1E069000FA80B
:105D10002BF042E005E0490093E0019F04E0FFFF23
:105D20009A3C1EE4B4061EE4B90700A2353C1EE40A
:105D3000C5061EE461071EE46F052EE400A29B3C2D
:105D4000C0E060009834993CC0E0610004AE9A3C29
:105D50001EE4B4061EE4B90700A2693C6A3C6B3C31
:105D60006C3C353C1EE4C50671D02A2081E11EE45E
:105D700061071EE46F052EE430D0000034D000002F
:105D800033D0000035D0000036D07F0037D000007F
:105D900038D000004BD001002EE4643C8EE0653C1E
:105DA0001EE4D1061EE4F90665289EE06428353C11
:105DB0002EE4352808AE00E038059EE0178B33004E
:105DC000178B3400178B3500178B3600178B370075
:105DD000178B380060C81735173D62C81735173D57
:105DE00064C81735173D2EE472C81735173D8CC8A7
:105DF0001735173D90C8173D96C8173D98C8173DF1
:105E00002EE4642808AE00E038059EE017893300D0
:105E1000178934001789350017893600178937002C
:105E2000178938001721174D60CC1721174D62CC08
:105E30001721174D64CC2EE41721174D72CC172172
:105E4000174D8CCC172990CCF4288ECCA62892CC58
:105E5000172996CC172998CC2EE400C03528CAF013
:105E600002A10AE4501702A10AE450171EE4F60B3F
:105E70004CD0000070E4A62878F03A2888F01EE4A0
:105E8000C10A1EE4D8054CD0000070E41EE4DA0B11
:105E9000A12888F002A2A13C37D000004CD000001D
:105EA00070E400A2A13C37D080004CD0000070E428
:105EB0000EE450171EE4F60B4CD0000070E400A274
:105EC000A23C1EE4DA0BA62896CCA12816E0A13C41
:105ED0002EE46B282AF11EE4B91F00E0400450CEE6
:105EE00004E00B0152CE00A252CE52CE52CE1EE49E
:105EF000C01F4ED100002EE482E09C3C04E048002C
:105F000092E027D0000069281AE4C30727D00100D7
:105F10006D2818F37928F8F248CA02A8E8F7982003
:105F2000994C9B2E11AE42E040CE21D1000022D1EF
:105F30004000C0E0430006A802AE32A046CE90E189
:105F400090E190E190E148CA02A8E8F79B2C00E0BC
:105F500002009B3C9A1C24F09B3C52F069286B3C4D
:105F600018E40F087A2878F09820994C9B2E11AEEF
:105F700042E0019F9C2892E04ED1000044D10000F5
:105F80002EE49820994C9B2E11AE42E005E048008B
:105F900093E0019F2EE4C1E0430009A829E400A298
:105FA0009D3C9820994C9B2E11AE42E01181899E18
:105FB00045E043F09A2C10AE41E003E0000269286E
:105FC00006B6693C23E401E000026A3E692828E441
:105FD000C0E0450004AF02A8693C48F6752802A855
:105FE0007AF0C1E0590003A116B6693C2EE4C0E086
:105FF000590002A168F0C0E045006D306D2828E42A
:106000007A284AF002A2793C2EE49D28B8F4C0E038
:106010005C0008E000406AF4C0E05D000AE0004077
:10602000C2E05D0002A200CE9D3C0EE4C9071EE462
:10603000B91F6A280AE4C01F06A87AF108A112E075
:1060400006AEFD3C6A2804AF20AE00E0C00150CE91
:1060500090E152CAFD5CFD586A2A05AF21AE01E00D
:10606000400151CE90E152CE04E0F0016A1862F195
:1060700020A004AF06E4C01FFD3C10AE6A2A07A0B2
:1060800005AF21AE41E001E0400051CEFD2801A264
:1060900053CE02A1E0F70EE4C01F6A2806A004AFA9
:1060A00020AE00E0400450CE04E00B0152CE00A22E
:1060B00052CE52CE52CE0EE4C01F0CBA3AF0FCBC07
:1060C0002EE44CBA0CA2963C962802A0963C40A125
:1060D000D2F040BAAAF7965802A19E349F3C962867
:1060E0001EE492089E009F0C2EE46BE12EE40CBA95
:1060F0003AF07EBE2EE44CBA0CA2963C962802A042
:10610000963C40A162F140BAAAF7965802A19E348B
:106110009F3C96281EE492089E009F0C9F3C9F8CFB
:10612000000002A002AF12E02CE412E06AE12EE4CB
:106130006BE12EE420A150F020A0973C97742EE450
:10614000973C5EBA9758977656E02EE440BA2AE418
:1061500068C80EA8003C16E028E4007416E02EE49F
:10616000FEA2C13CC4E0FF3F0DE464094A3C7F2A23
:106170003BF008E4640912BC0DE464090AA1A8B468
:1061800004A100E46409B4B706A0303CFEBD0DE4F0
:1061900064092018DAF02008203C1EE43A1788F041
:1061A000C0E0760004A9C2E076000EE46409117430
:1061B000313C1B283C3C4A283C1802E46409A528D1
:1061C0006AF01EE455080DE464093D3C1EE4E21447
:1061D0000DE464092C287AF01EE455080DE46409E6
:1061E00008E464097A2808E46209752802A81AF20A
:1061F000C0E0650008A8F8F07F3CC0E0650006AF8D
:1062000006A8AAF302A17AF002A12AF08EF0A32830
:106210006AF02EF302A27F3CA528E8F2FAA2C2E0BF
:1062200071003028C2E0730000A27E3C0EE46209D7
:106230007F288AF0A5288AF17C28EAF102A17C3C1B
:106240003EF1C0E066008AF17D286AF102A16AF0A1
:1062500002A168F0A3284AF0FEF0A528D8F07C2817
:1062600002A16AF07C3C00A27E3C0EE4620902A21C
:106270007E3C0EE4620904A27E3C2428403C302887
:106280007AF040BA5AF03EBC403C0DE464091EE48A
:10629000D8191EE41F183028BAF040BA9AF006BC8C
:1062A000CDF106A15AF01EE455087DF19EF71EE4DB
:1062B000F0133AF1C6E033000DF12A289AF004BC3D
:1062C000CDF002A15AF00CBE8DF00CBE6DF023286B
:1062D00018E4090E02A22EE46AE1C12894F01EE43B
:1062E0008D19C1281EE49419C1281EE49B1900A22F
:1062F0002EE400A2883CC4E0FF3F0DE4CC094A3CF8
:106300003C1802E4CC0912BC0DE4CC090AA1A8B4E3
:1063100004A100E4CC09FEBD0DE4CC0920183AF03C
:1063200002A2883C117431183AF002A2883CA528D8
:106330009AF01EE455080DE4CC093D1C3AF002A287
:10634000883C132802A134F02AF15EF21474E31C95
:106350003AF002A2883C2228EAF11EE46F085DF2BE
:10636000E410E51C3AF002A2883C5EF1152838F1F1
:106370001EE46F08ADF1E310E41C3AF002A2883C81
